{
  "_format": "hh-sol-artifact-1",
  "contractName": "CrossChainSwap",
  "sourceName": "contracts/MultiChainSwap.sol",
  "abi": [
    {
      "inputs": [
        {
          "internalType": "address",
          "name": "_endpoint",
          "type": "address"
        }
      ],
      "stateMutability": "nonpayable",
      "type": "constructor"
    },
    {
      "inputs": [
        {
          "internalType": "address",
          "name": "owner",
          "type": "address"
        }
      ],
      "name": "OwnableInvalidOwner",
      "type": "error"
    },
    {
      "inputs": [
        {
          "internalType": "address",
          "name": "account",
          "type": "address"
        }
      ],
      "name": "OwnableUnauthorizedAccount",
      "type": "error"
    },
    {
      "inputs": [],
      "name": "ReentrancyGuardReentrantCall",
      "type": "error"
    },
    {
      "inputs": [
        {
          "internalType": "address",
          "name": "token",
          "type": "address"
        }
      ],
      "name": "SafeERC20FailedOperation",
      "type": "error"
    },
    {
      "anonymous": false,
      "inputs": [
        {
          "indexed": true,
          "internalType": "address",
          "name": "previousOwner",
          "type": "address"
        },
        {
          "indexed": true,
          "internalType": "address",
          "name": "newOwner",
          "type": "address"
        }
      ],
      "name": "OwnershipTransferred",
      "type": "event"
    },
    {
      "anonymous": false,
      "inputs": [
        {
          "indexed": true,
          "internalType": "address",
          "name": "user",
          "type": "address"
        },
        {
          "indexed": true,
          "internalType": "address",
          "name": "token",
          "type": "address"
        },
        {
          "indexed": false,
          "internalType": "uint256",
          "name": "amount",
          "type": "uint256"
        },
        {
          "indexed": false,
          "internalType": "uint16",
          "name": "srcChainId",
          "type": "uint16"
        }
      ],
      "name": "SwapCompleted",
      "type": "event"
    },
    {
      "anonymous": false,
      "inputs": [
        {
          "indexed": true,
          "internalType": "address",
          "name": "user",
          "type": "address"
        },
        {
          "indexed": true,
          "internalType": "address",
          "name": "token",
          "type": "address"
        },
        {
          "indexed": false,
          "internalType": "uint256",
          "name": "amount",
          "type": "uint256"
        },
        {
          "indexed": false,
          "internalType": "uint16",
          "name": "dstChainId",
          "type": "uint16"
        },
        {
          "indexed": false,
          "internalType": "address",
          "name": "to",
          "type": "address"
        }
      ],
      "name": "SwapInitiated",
      "type": "event"
    },
    {
      "inputs": [],
      "name": "endpoint",
      "outputs": [
        {
          "internalType": "contract ILayerZeroEndpoint",
          "name": "",
          "type": "address"
        }
      ],
      "stateMutability": "view",
      "type": "function"
    },
    {
      "inputs": [
        {
          "internalType": "address",
          "name": "token",
          "type": "address"
        },
        {
          "internalType": "uint256",
          "name": "amount",
          "type": "uint256"
        },
        {
          "internalType": "uint16",
          "name": "dstChainId",
          "type": "uint16"
        },
        {
          "internalType": "bytes",
          "name": "dstContractAddr",
          "type": "bytes"
        },
        {
          "internalType": "address",
          "name": "to",
          "type": "address"
        }
      ],
      "name": "initiateSwap",
      "outputs": [],
      "stateMutability": "payable",
      "type": "function"
    },
    {
      "inputs": [
        {
          "internalType": "address",
          "name": "token",
          "type": "address"
        }
      ],
      "name": "isSupportedToken",
      "outputs": [
        {
          "internalType": "bool",
          "name": "",
          "type": "bool"
        }
      ],
      "stateMutability": "view",
      "type": "function"
    },
    {
      "inputs": [
        {
          "internalType": "uint16",
          "name": "_srcChainId",
          "type": "uint16"
        },
        {
          "internalType": "bytes",
          "name": "",
          "type": "bytes"
        },
        {
          "internalType": "uint64",
          "name": "",
          "type": "uint64"
        },
        {
          "internalType": "bytes",
          "name": "_payload",
          "type": "bytes"
        }
      ],
      "name": "lzReceive",
      "outputs": [],
      "stateMutability": "nonpayable",
      "type": "function"
    },
    {
      "inputs": [],
      "name": "owner",
      "outputs": [
        {
          "internalType": "address",
          "name": "",
          "type": "address"
        }
      ],
      "stateMutability": "view",
      "type": "function"
    },
    {
      "inputs": [],
      "name": "renounceOwnership",
      "outputs": [],
      "stateMutability": "nonpayable",
      "type": "function"
    },
    {
      "inputs": [
        {
          "internalType": "address",
          "name": "token",
          "type": "address"
        },
        {
          "internalType": "bool",
          "name": "status",
          "type": "bool"
        }
      ],
      "name": "setSupportedToken",
      "outputs": [],
      "stateMutability": "nonpayable",
      "type": "function"
    },
    {
      "inputs": [
        {
          "internalType": "uint16",
          "name": "_chainId",
          "type": "uint16"
        },
        {
          "internalType": "bytes",
          "name": "_remoteAddress",
          "type": "bytes"
        }
      ],
      "name": "setTrustedRemote",
      "outputs": [],
      "stateMutability": "nonpayable",
      "type": "function"
    },
    {
      "inputs": [
        {
          "internalType": "address",
          "name": "",
          "type": "address"
        }
      ],
      "name": "supportedTokens",
      "outputs": [
        {
          "internalType": "bool",
          "name": "",
          "type": "bool"
        }
      ],
      "stateMutability": "view",
      "type": "function"
    },
    {
      "inputs": [
        {
          "internalType": "address",
          "name": "newOwner",
          "type": "address"
        }
      ],
      "name": "transferOwnership",
      "outputs": [],
      "stateMutability": "nonpayable",
      "type": "function"
    },
    {
      "inputs": [
        {
          "internalType": "uint16",
          "name": "",
          "type": "uint16"
        }
      ],
      "name": "trustedRemote",
      "outputs": [
        {
          "internalType": "bytes",
          "name": "",
          "type": "bytes"
        }
      ],
      "stateMutability": "view",
      "type": "function"
    }
  ],
  "bytecode": "0x60806040523480156200001157600080fd5b5060405162001bca38038062001bca83398181016040528101906200003791906200023c565b33600073ffffffffffffffffffffffffffffffffffffffff168173ffffffffffffffffffffffffffffffffffffffff1603620000ad5760006040517f1e4fbdf7000000000000000000000000000000000000000000000000000000008152600401620000a491906200027f565b60405180910390fd5b620000be816200010e60201b60201c565b506001808190555080600260006101000a81548173ffffffffffffffffffffffffffffffffffffffff021916908373ffffffffffffffffffffffffffffffffffffffff160217905550506200029c565b60008060009054906101000a900473ffffffffffffffffffffffffffffffffffffffff169050816000806101000a81548173ffffffffffffffffffffffffffffffffffffffff021916908373ffffffffffffffffffffffffffffffffffffffff1602179055508173ffffffffffffffffffffffffffffffffffffffff168173ffffffffffffffffffffffffffffffffffffffff167f8be0079c531659141344cd1fd0a4f28419497f9722a3daafe3b4186f6b6457e060405160405180910390a35050565b600080fd5b600073ffffffffffffffffffffffffffffffffffffffff82169050919050565b60006200020482620001d7565b9050919050565b6200021681620001f7565b81146200022257600080fd5b50565b60008151905062000236816200020b565b92915050565b600060208284031215620002555762000254620001d2565b5b6000620002658482850162000225565b91505092915050565b6200027981620001f7565b82525050565b60006020820190506200029660008301846200026e565b92915050565b61191e80620002ac6000396000f3fe60806040526004361061009b5760003560e01c8063715018a611610064578063715018a61461018a5780638da5cb5b146101a1578063ac447944146101cc578063e798646614610209578063eb8d72b714610232578063f2fde38b1461025b5761009b565b80621d3567146100a0578063240028e8146100c9578063507110d9146101065780635e280f111461012257806368c4ac261461014d575b600080fd5b3480156100ac57600080fd5b506100c760048036038101906100c29190610d75565b610284565b005b3480156100d557600080fd5b506100f060048036038101906100eb9190610e7a565b61045b565b6040516100fd9190610ec2565b60405180910390f35b610120600480360381019061011b9190610f13565b6104b1565b005b34801561012e57600080fd5b50610137610703565b604051610144919061100c565b60405180910390f35b34801561015957600080fd5b50610174600480360381019061016f9190610e7a565b610729565b6040516101819190610ec2565b60405180910390f35b34801561019657600080fd5b5061019f610749565b005b3480156101ad57600080fd5b506101b661075d565b6040516101c39190611036565b60405180910390f35b3480156101d857600080fd5b506101f360048036038101906101ee9190611051565b610786565b604051610200919061110e565b60405180910390f35b34801561021557600080fd5b50610230600480360381019061022b919061115c565b610826565b005b34801561023e57600080fd5b506102596004803603810190610254919061119c565b610889565b005b34801561026757600080fd5b50610282600480360381019061027d9190610e7a565b6108c1565b005b600260009054906101000a900473ffffffffffffffffffffffffffffffffffffffff1673ffffffffffffffffffffffffffffffffffffffff163373ffffffffffffffffffffffffffffffffffffffff1614610314576040517f08c379a000000000000000000000000000000000000000000000000000000000815260040161030b90611259565b60405180910390fd5b600080600080858581019061032991906112b7565b9350935093509350600360008373ffffffffffffffffffffffffffffffffffffffff1673ffffffffffffffffffffffffffffffffffffffff16815260200190815260200160002060009054906101000a900460ff166103bd576040517f08c379a00000000000000000000000000000000000000000000000000000000081526004016103b49061136a565b60405180910390fd5b6103e883828473ffffffffffffffffffffffffffffffffffffffff166109479092919063ffffffff16565b8173ffffffffffffffffffffffffffffffffffffffff168473ffffffffffffffffffffffffffffffffffffffff167fc5ee7ffddea944e68cfb3b48de141db7982ff78e0f9135d260cc6ba539538596838d6040516104479291906113a8565b60405180910390a350505050505050505050565b6000600360008373ffffffffffffffffffffffffffffffffffffffff1673ffffffffffffffffffffffffffffffffffffffff16815260200190815260200160002060009054906101000a900460ff169050919050565b6104b96109c6565b600360008773ffffffffffffffffffffffffffffffffffffffff1673ffffffffffffffffffffffffffffffffffffffff16815260200190815260200160002060009054906101000a900460ff16610545576040517f08c379a000000000000000000000000000000000000000000000000000000000815260040161053c9061136a565b60405180910390fd5b60008511610588576040517f08c379a000000000000000000000000000000000000000000000000000000000815260040161057f9061141d565b60405180910390fd5b6105b53330878973ffffffffffffffffffffffffffffffffffffffff16610a0c909392919063ffffffff16565b6000338288886040516020016105ce949392919061143d565b6040516020818303038152906040529050600260009054906101000a900473ffffffffffffffffffffffffffffffffffffffff1673ffffffffffffffffffffffffffffffffffffffff1663c58031003487878786336000604051806020016040528060008152506040518963ffffffff1660e01b815260040161065797969594939291906114cd565b6000604051808303818588803b15801561067057600080fd5b505af1158015610684573d6000803e3d6000fd5b50505050508673ffffffffffffffffffffffffffffffffffffffff163373ffffffffffffffffffffffffffffffffffffffff167f4d86c424c3a6ea947ec8f2848427b7758bba7e7c4d092c7b6567cdc9b92569968888866040516106ea93929190611545565b60405180910390a3506106fb610a8e565b505050505050565b600260009054906101000a900473ffffffffffffffffffffffffffffffffffffffff1681565b60036020528060005260406000206000915054906101000a900460ff1681565b610751610a97565b61075b6000610b1e565b565b60008060009054906101000a900473ffffffffffffffffffffffffffffffffffffffff16905090565b600460205280600052604060002060009150905080546107a5906115ab565b80601f01602080910402602001604051908101604052809291908181526020018280546107d1906115ab565b801561081e5780601f106107f35761010080835404028352916020019161081e565b820191906000526020600020905b81548152906001019060200180831161080157829003601f168201915b505050505081565b61082e610a97565b80600360008473ffffffffffffffffffffffffffffffffffffffff1673ffffffffffffffffffffffffffffffffffffffff16815260200190815260200160002060006101000a81548160ff0219169083151502179055505050565b610891610a97565b8181600460008661ffff1661ffff16815260200190815260200160002091826108bb9291906117b8565b50505050565b6108c9610a97565b600073ffffffffffffffffffffffffffffffffffffffff168173ffffffffffffffffffffffffffffffffffffffff160361093b5760006040517f1e4fbdf70000000000000000000000000000000000000000000000000000000081526004016109329190611036565b60405180910390fd5b61094481610b1e565b50565b6109c1838473ffffffffffffffffffffffffffffffffffffffff1663a9059cbb858560405160240161097a929190611888565b604051602081830303815290604052915060e01b6020820180517bffffffffffffffffffffffffffffffffffffffffffffffffffffffff8381831617835250505050610be2565b505050565b600260015403610a02576040517f3ee5aeb500000000000000000000000000000000000000000000000000000000815260040160405180910390fd5b6002600181905550565b610a88848573ffffffffffffffffffffffffffffffffffffffff166323b872dd868686604051602401610a41939291906118b1565b604051602081830303815290604052915060e01b6020820180517bffffffffffffffffffffffffffffffffffffffffffffffffffffffff8381831617835250505050610be2565b50505050565b60018081905550565b610a9f610c84565b73ffffffffffffffffffffffffffffffffffffffff16610abd61075d565b73ffffffffffffffffffffffffffffffffffffffff1614610b1c57610ae0610c84565b6040517f118cdaa7000000000000000000000000000000000000000000000000000000008152600401610b139190611036565b60405180910390fd5b565b60008060009054906101000a900473ffffffffffffffffffffffffffffffffffffffff169050816000806101000a81548173ffffffffffffffffffffffffffffffffffffffff021916908373ffffffffffffffffffffffffffffffffffffffff1602179055508173ffffffffffffffffffffffffffffffffffffffff168173ffffffffffffffffffffffffffffffffffffffff167f8be0079c531659141344cd1fd0a4f28419497f9722a3daafe3b4186f6b6457e060405160405180910390a35050565b600080602060008451602086016000885af180610c05576040513d6000823e3d81fd5b3d925060005191505060008214610c20576001811415610c3c565b60008473ffffffffffffffffffffffffffffffffffffffff163b145b15610c7e57836040517f5274afe7000000000000000000000000000000000000000000000000000000008152600401610c759190611036565b60405180910390fd5b50505050565b600033905090565b600080fd5b600080fd5b600061ffff82169050919050565b610cad81610c96565b8114610cb857600080fd5b50565b600081359050610cca81610ca4565b92915050565b600080fd5b600080fd5b600080fd5b60008083601f840112610cf557610cf4610cd0565b5b8235905067ffffffffffffffff811115610d1257610d11610cd5565b5b602083019150836001820283011115610d2e57610d2d610cda565b5b9250929050565b600067ffffffffffffffff82169050919050565b610d5281610d35565b8114610d5d57600080fd5b50565b600081359050610d6f81610d49565b92915050565b60008060008060008060808789031215610d9257610d91610c8c565b5b6000610da089828a01610cbb565b965050602087013567ffffffffffffffff811115610dc157610dc0610c91565b5b610dcd89828a01610cdf565b95509550506040610de089828a01610d60565b935050606087013567ffffffffffffffff811115610e0157610e00610c91565b5b610e0d89828a01610cdf565b92509250509295509295509295565b600073ffffffffffffffffffffffffffffffffffffffff82169050919050565b6000610e4782610e1c565b9050919050565b610e5781610e3c565b8114610e6257600080fd5b50565b600081359050610e7481610e4e565b92915050565b600060208284031215610e9057610e8f610c8c565b5b6000610e9e84828501610e65565b91505092915050565b60008115159050919050565b610ebc81610ea7565b82525050565b6000602082019050610ed76000830184610eb3565b92915050565b6000819050919050565b610ef081610edd565b8114610efb57600080fd5b50565b600081359050610f0d81610ee7565b92915050565b60008060008060008060a08789031215610f3057610f2f610c8c565b5b6000610f3e89828a01610e65565b9650506020610f4f89828a01610efe565b9550506040610f6089828a01610cbb565b945050606087013567ffffffffffffffff811115610f8157610f80610c91565b5b610f8d89828a01610cdf565b93509350506080610fa089828a01610e65565b9150509295509295509295565b6000819050919050565b6000610fd2610fcd610fc884610e1c565b610fad565b610e1c565b9050919050565b6000610fe482610fb7565b9050919050565b6000610ff682610fd9565b9050919050565b61100681610feb565b82525050565b60006020820190506110216000830184610ffd565b92915050565b61103081610e3c565b82525050565b600060208201905061104b6000830184611027565b92915050565b60006020828403121561106757611066610c8c565b5b600061107584828501610cbb565b91505092915050565b600081519050919050565b600082825260208201905092915050565b60005b838110156110b857808201518184015260208101905061109d565b60008484015250505050565b6000601f19601f8301169050919050565b60006110e08261107e565b6110ea8185611089565b93506110fa81856020860161109a565b611103816110c4565b840191505092915050565b6000602082019050818103600083015261112881846110d5565b905092915050565b61113981610ea7565b811461114457600080fd5b50565b60008135905061115681611130565b92915050565b6000806040838503121561117357611172610c8c565b5b600061118185828601610e65565b925050602061119285828601611147565b9150509250929050565b6000806000604084860312156111b5576111b4610c8c565b5b60006111c386828701610cbb565b935050602084013567ffffffffffffffff8111156111e4576111e3610c91565b5b6111f086828701610cdf565b92509250509250925092565b600082825260208201905092915050565b7f4f6e6c7920656e64706f696e7400000000000000000000000000000000000000600082015250565b6000611243600d836111fc565b915061124e8261120d565b602082019050919050565b6000602082019050818103600083015261127281611236565b9050919050565b600061128482610e1c565b9050919050565b61129481611279565b811461129f57600080fd5b50565b6000813590506112b18161128b565b92915050565b600080600080608085870312156112d1576112d0610c8c565b5b60006112df878288016112a2565b94505060206112f0878288016112a2565b9350506040611301878288016112a2565b925050606061131287828801610efe565b91505092959194509250565b7f546f6b656e206e6f7420737570706f7274656400000000000000000000000000600082015250565b60006113546013836111fc565b915061135f8261131e565b602082019050919050565b6000602082019050818103600083015261138381611347565b9050919050565b61139381610edd565b82525050565b6113a281610c96565b82525050565b60006040820190506113bd600083018561138a565b6113ca6020830184611399565b9392505050565b7f416d6f756e74206d757374206265203e20300000000000000000000000000000600082015250565b60006114076012836111fc565b9150611412826113d1565b602082019050919050565b60006020820190508181036000830152611436816113fa565b9050919050565b60006080820190506114526000830187611027565b61145f6020830186611027565b61146c6040830185611027565b611479606083018461138a565b95945050505050565b82818337600083830152505050565b600061149d8385611089565b93506114aa838584611482565b6114b3836110c4565b840190509392505050565b6114c781611279565b82525050565b600060c0820190506114e2600083018a611399565b81810360208301526114f581888a611491565b9050818103604083015261150981876110d5565b905061151860608301866114be565b6115256080830185611027565b81810360a083015261153781846110d5565b905098975050505050505050565b600060608201905061155a600083018661138a565b6115676020830185611399565b6115746040830184611027565b949350505050565b7f4e487b7100000000000000000000000000000000000000000000000000000000600052602260045260246000fd5b600060028204905060018216806115c357607f821691505b6020821081036115d6576115d561157c565b5b50919050565b600082905092915050565b7f4e487b7100000000000000000000000000000000000000000000000000000000600052604160045260246000fd5b60008190508160005260206000209050919050565b60006020601f8301049050919050565b600082821b905092915050565b6000600883026116787fffffffffffffffffffffffffffffffffffffffffffffffffffffffffffffffff8261163b565b611682868361163b565b95508019841693508086168417925050509392505050565b60006116b56116b06116ab84610edd565b610fad565b610edd565b9050919050565b6000819050919050565b6116cf8361169a565b6116e36116db826116bc565b848454611648565b825550505050565b600090565b6116f86116eb565b6117038184846116c6565b505050565b5b818110156117275761171c6000826116f0565b600181019050611709565b5050565b601f82111561176c5761173d81611616565b6117468461162b565b81016020851015611755578190505b6117696117618561162b565b830182611708565b50505b505050565b600082821c905092915050565b600061178f60001984600802611771565b1980831691505092915050565b60006117a8838361177e565b9150826002028217905092915050565b6117c283836115dc565b67ffffffffffffffff8111156117db576117da6115e7565b5b6117e582546115ab565b6117f082828561172b565b6000601f83116001811461181f576000841561180d578287013590505b611817858261179c565b86555061187f565b601f19841661182d86611616565b60005b8281101561185557848901358255600182019150602085019450602081019050611830565b86831015611872578489013561186e601f89168261177e565b8355505b6001600288020188555050505b50505050505050565b600060408201905061189d6000830185611027565b6118aa602083018461138a565b9392505050565b60006060820190506118c66000830186611027565b6118d36020830185611027565b6118e0604083018461138a565b94935050505056fea264697066735822122067517cb78376ebc0979d8985abf747c15eacc09fab79ea16fdca1d2d8b453a5864736f6c63430008140033",
  "linkReferences": {},
  "deployedLinkReferences": {}
}