{
  "_format": "hh-sol-artifact-1",
  "contractName": "Swap",
  "sourceName": "contracts/Swap.sol",
  "abi": [
    {
      "inputs": [
        {
          "internalType": "address",
          "name": "_tokenA",
          "type": "address"
        },
        {
          "internalType": "address",
          "name": "_tokenB",
          "type": "address"
        },
        {
          "internalType": "uint256",
          "name": "_rate",
          "type": "uint256"
        }
      ],
      "stateMutability": "nonpayable",
      "type": "constructor"
    },
    {
      "inputs": [
        {
          "internalType": "address",
          "name": "owner",
          "type": "address"
        }
      ],
      "name": "OwnableInvalidOwner",
      "type": "error"
    },
    {
      "inputs": [
        {
          "internalType": "address",
          "name": "account",
          "type": "address"
        }
      ],
      "name": "OwnableUnauthorizedAccount",
      "type": "error"
    },
    {
      "anonymous": false,
      "inputs": [
        {
          "indexed": true,
          "internalType": "address",
          "name": "previousOwner",
          "type": "address"
        },
        {
          "indexed": true,
          "internalType": "address",
          "name": "newOwner",
          "type": "address"
        }
      ],
      "name": "OwnershipTransferred",
      "type": "event"
    },
    {
      "inputs": [
        {
          "internalType": "uint256",
          "name": "amountA",
          "type": "uint256"
        },
        {
          "internalType": "uint256",
          "name": "amountB",
          "type": "uint256"
        }
      ],
      "name": "addLiquidity",
      "outputs": [],
      "stateMutability": "nonpayable",
      "type": "function"
    },
    {
      "inputs": [],
      "name": "owner",
      "outputs": [
        {
          "internalType": "address",
          "name": "",
          "type": "address"
        }
      ],
      "stateMutability": "view",
      "type": "function"
    },
    {
      "inputs": [],
      "name": "rate",
      "outputs": [
        {
          "internalType": "uint256",
          "name": "",
          "type": "uint256"
        }
      ],
      "stateMutability": "view",
      "type": "function"
    },
    {
      "inputs": [],
      "name": "renounceOwnership",
      "outputs": [],
      "stateMutability": "nonpayable",
      "type": "function"
    },
    {
      "inputs": [
        {
          "internalType": "uint256",
          "name": "amountA",
          "type": "uint256"
        }
      ],
      "name": "swapAToB",
      "outputs": [],
      "stateMutability": "nonpayable",
      "type": "function"
    },
    {
      "inputs": [],
      "name": "tokenA",
      "outputs": [
        {
          "internalType": "contract IERC20",
          "name": "",
          "type": "address"
        }
      ],
      "stateMutability": "view",
      "type": "function"
    },
    {
      "inputs": [],
      "name": "tokenB",
      "outputs": [
        {
          "internalType": "contract IERC20",
          "name": "",
          "type": "address"
        }
      ],
      "stateMutability": "view",
      "type": "function"
    },
    {
      "inputs": [
        {
          "internalType": "address",
          "name": "newOwner",
          "type": "address"
        }
      ],
      "name": "transferOwnership",
      "outputs": [],
      "stateMutability": "nonpayable",
      "type": "function"
    }
  ],
  "bytecode": "0x60806040523480156200001157600080fd5b5060405162001026380380620010268339818101604052810190620000379190620002ba565b33600073ffffffffffffffffffffffffffffffffffffffff168173ffffffffffffffffffffffffffffffffffffffff1603620000ad5760006040517f1e4fbdf7000000000000000000000000000000000000000000000000000000008152600401620000a4919062000327565b60405180910390fd5b620000be816200015160201b60201c565b5082600160006101000a81548173ffffffffffffffffffffffffffffffffffffffff021916908373ffffffffffffffffffffffffffffffffffffffff16021790555081600260006101000a81548173ffffffffffffffffffffffffffffffffffffffff021916908373ffffffffffffffffffffffffffffffffffffffff1602179055508060038190555050505062000344565b60008060009054906101000a900473ffffffffffffffffffffffffffffffffffffffff169050816000806101000a81548173ffffffffffffffffffffffffffffffffffffffff021916908373ffffffffffffffffffffffffffffffffffffffff1602179055508173ffffffffffffffffffffffffffffffffffffffff168173ffffffffffffffffffffffffffffffffffffffff167f8be0079c531659141344cd1fd0a4f28419497f9722a3daafe3b4186f6b6457e060405160405180910390a35050565b600080fd5b600073ffffffffffffffffffffffffffffffffffffffff82169050919050565b600062000247826200021a565b9050919050565b62000259816200023a565b81146200026557600080fd5b50565b60008151905062000279816200024e565b92915050565b6000819050919050565b62000294816200027f565b8114620002a057600080fd5b50565b600081519050620002b48162000289565b92915050565b600080600060608486031215620002d657620002d562000215565b5b6000620002e68682870162000268565b9350506020620002f98682870162000268565b92505060406200030c86828701620002a3565b9150509250925092565b62000321816200023a565b82525050565b60006020820190506200033e600083018462000316565b92915050565b610cd280620003546000396000f3fe608060405234801561001057600080fd5b50600436106100885760003560e01c8063715018a61161005b578063715018a6146101035780638da5cb5b1461010d5780639cd441da1461012b578063f2fde38b1461014757610088565b80630fc63d101461008d5780632c4e722e146100ab57806338720f72146100c95780635f64b55b146100e5575b600080fd5b610095610163565b6040516100a291906108b9565b60405180910390f35b6100b3610189565b6040516100c091906108ed565b60405180910390f35b6100e360048036038101906100de9190610939565b61018f565b005b6100ed6104ac565b6040516100fa91906108b9565b60405180910390f35b61010b6104d2565b005b6101156104e6565b6040516101229190610987565b60405180910390f35b610145600480360381019061014091906109a2565b61050f565b005b610161600480360381019061015c9190610a0e565b610661565b005b600160009054906101000a900473ffffffffffffffffffffffffffffffffffffffff1681565b60035481565b80600160009054906101000a900473ffffffffffffffffffffffffffffffffffffffff1673ffffffffffffffffffffffffffffffffffffffff166370a08231336040518263ffffffff1660e01b81526004016101eb9190610987565b602060405180830381865afa158015610208573d6000803e3d6000fd5b505050506040513d601f19601f8201168201806040525081019061022c9190610a50565b101561026d576040517f08c379a000000000000000000000000000000000000000000000000000000000815260040161026490610ada565b60405180910390fd5b6003548161027b9190610b29565b600260009054906101000a900473ffffffffffffffffffffffffffffffffffffffff1673ffffffffffffffffffffffffffffffffffffffff166370a08231306040518263ffffffff1660e01b81526004016102d69190610987565b602060405180830381865afa1580156102f3573d6000803e3d6000fd5b505050506040513d601f19601f820116820180604052508101906103179190610a50565b1015610358576040517f08c379a000000000000000000000000000000000000000000000000000000000815260040161034f90610bb7565b60405180910390fd5b600160009054906101000a900473ffffffffffffffffffffffffffffffffffffffff1673ffffffffffffffffffffffffffffffffffffffff166323b872dd3330846040518463ffffffff1660e01b81526004016103b793929190610bd7565b6020604051808303816000875af11580156103d6573d6000803e3d6000fd5b505050506040513d601f19601f820116820180604052508101906103fa9190610c46565b50600260009054906101000a900473ffffffffffffffffffffffffffffffffffffffff1673ffffffffffffffffffffffffffffffffffffffff1663a9059cbb33600354846104489190610b29565b6040518363ffffffff1660e01b8152600401610465929190610c73565b6020604051808303816000875af1158015610484573d6000803e3d6000fd5b505050506040513d601f19601f820116820180604052508101906104a89190610c46565b5050565b600260009054906101000a900473ffffffffffffffffffffffffffffffffffffffff1681565b6104da6106e7565b6104e4600061076e565b565b60008060009054906101000a900473ffffffffffffffffffffffffffffffffffffffff16905090565b6105176106e7565b600160009054906101000a900473ffffffffffffffffffffffffffffffffffffffff1673ffffffffffffffffffffffffffffffffffffffff166323b872dd3330856040518463ffffffff1660e01b815260040161057693929190610bd7565b6020604051808303816000875af1158015610595573d6000803e3d6000fd5b505050506040513d601f19601f820116820180604052508101906105b99190610c46565b50600260009054906101000a900473ffffffffffffffffffffffffffffffffffffffff1673ffffffffffffffffffffffffffffffffffffffff166323b872dd3330846040518463ffffffff1660e01b815260040161061993929190610bd7565b6020604051808303816000875af1158015610638573d6000803e3d6000fd5b505050506040513d601f19601f8201168201806040525081019061065c9190610c46565b505050565b6106696106e7565b600073ffffffffffffffffffffffffffffffffffffffff168173ffffffffffffffffffffffffffffffffffffffff16036106db5760006040517f1e4fbdf70000000000000000000000000000000000000000000000000000000081526004016106d29190610987565b60405180910390fd5b6106e48161076e565b50565b6106ef610832565b73ffffffffffffffffffffffffffffffffffffffff1661070d6104e6565b73ffffffffffffffffffffffffffffffffffffffff161461076c57610730610832565b6040517f118cdaa70000000000000000000000000000000000000000000000000000000081526004016107639190610987565b60405180910390fd5b565b60008060009054906101000a900473ffffffffffffffffffffffffffffffffffffffff169050816000806101000a81548173ffffffffffffffffffffffffffffffffffffffff021916908373ffffffffffffffffffffffffffffffffffffffff1602179055508173ffffffffffffffffffffffffffffffffffffffff168173ffffffffffffffffffffffffffffffffffffffff167f8be0079c531659141344cd1fd0a4f28419497f9722a3daafe3b4186f6b6457e060405160405180910390a35050565b600033905090565b600073ffffffffffffffffffffffffffffffffffffffff82169050919050565b6000819050919050565b600061087f61087a6108758461083a565b61085a565b61083a565b9050919050565b600061089182610864565b9050919050565b60006108a382610886565b9050919050565b6108b381610898565b82525050565b60006020820190506108ce60008301846108aa565b92915050565b6000819050919050565b6108e7816108d4565b82525050565b600060208201905061090260008301846108de565b92915050565b600080fd5b610916816108d4565b811461092157600080fd5b50565b6000813590506109338161090d565b92915050565b60006020828403121561094f5761094e610908565b5b600061095d84828501610924565b91505092915050565b60006109718261083a565b9050919050565b61098181610966565b82525050565b600060208201905061099c6000830184610978565b92915050565b600080604083850312156109b9576109b8610908565b5b60006109c785828601610924565b92505060206109d885828601610924565b9150509250929050565b6109eb81610966565b81146109f657600080fd5b50565b600081359050610a08816109e2565b92915050565b600060208284031215610a2457610a23610908565b5b6000610a32848285016109f9565b91505092915050565b600081519050610a4a8161090d565b92915050565b600060208284031215610a6657610a65610908565b5b6000610a7484828501610a3b565b91505092915050565b600082825260208201905092915050565b7f4e6f7420656e6f75676820546f6b656e41000000000000000000000000000000600082015250565b6000610ac4601183610a7d565b9150610acf82610a8e565b602082019050919050565b60006020820190508181036000830152610af381610ab7565b9050919050565b7f4e487b7100000000000000000000000000000000000000000000000000000000600052601160045260246000fd5b6000610b34826108d4565b9150610b3f836108d4565b9250828202610b4d816108d4565b91508282048414831517610b6457610b63610afa565b5b5092915050565b7f4e6f7420656e6f75676820546f6b656e42206c69717569646974790000000000600082015250565b6000610ba1601b83610a7d565b9150610bac82610b6b565b602082019050919050565b60006020820190508181036000830152610bd081610b94565b9050919050565b6000606082019050610bec6000830186610978565b610bf96020830185610978565b610c0660408301846108de565b949350505050565b60008115159050919050565b610c2381610c0e565b8114610c2e57600080fd5b50565b600081519050610c4081610c1a565b92915050565b600060208284031215610c5c57610c5b610908565b5b6000610c6a84828501610c31565b91505092915050565b6000604082019050610c886000830185610978565b610c9560208301846108de565b939250505056fea2646970667358221220a7357cebe0deb892070f9f80863be3c261694d81b6a4f5098b48eac33883dbc164736f6c63430008140033",
  "linkReferences": {},
  "deployedLinkReferences": {}
}